{
  "_format": "hh-sol-artifact-1",
  "contractName": "Request",
  "sourceName": "contracts/Request.sol",
  "abi": [
    {
      "inputs": [
        {
          "internalType": "address",
          "name": "_storageManager",
          "type": "address"
        }
      ],
      "stateMutability": "nonpayable",
      "type": "constructor"
    },
    {
      "inputs": [
        {
          "internalType": "address",
          "name": "target",
          "type": "address"
        }
      ],
      "name": "AddressEmptyCode",
      "type": "error"
    },
    {
      "inputs": [],
      "name": "ECDSAInvalidSignature",
      "type": "error"
    },
    {
      "inputs": [
        {
          "internalType": "uint256",
          "name": "length",
          "type": "uint256"
        }
      ],
      "name": "ECDSAInvalidSignatureLength",
      "type": "error"
    },
    {
      "inputs": [
        {
          "internalType": "bytes32",
          "name": "s",
          "type": "bytes32"
        }
      ],
      "name": "ECDSAInvalidSignatureS",
      "type": "error"
    },
    {
      "inputs": [
        {
          "internalType": "address",
          "name": "implementation",
          "type": "address"
        }
      ],
      "name": "ERC1967InvalidImplementation",
      "type": "error"
    },
    {
      "inputs": [],
      "name": "ERC1967NonPayable",
      "type": "error"
    },
    {
      "inputs": [],
      "name": "FailedInnerCall",
      "type": "error"
    },
    {
      "inputs": [],
      "name": "InvalidInitialization",
      "type": "error"
    },
    {
      "inputs": [],
      "name": "NotInitializing",
      "type": "error"
    },
    {
      "inputs": [],
      "name": "UUPSUnauthorizedCallContext",
      "type": "error"
    },
    {
      "inputs": [
        {
          "internalType": "bytes32",
          "name": "slot",
          "type": "bytes32"
        }
      ],
      "name": "UUPSUnsupportedProxiableUUID",
      "type": "error"
    },
    {
      "anonymous": false,
      "inputs": [
        {
          "indexed": false,
          "internalType": "uint64",
          "name": "version",
          "type": "uint64"
        }
      ],
      "name": "Initialized",
      "type": "event"
    },
    {
      "anonymous": false,
      "inputs": [],
      "name": "RequestAccepted",
      "type": "event"
    },
    {
      "anonymous": false,
      "inputs": [
        {
          "indexed": false,
          "internalType": "uint256",
          "name": "amount",
          "type": "uint256"
        }
      ],
      "name": "RequestAmountEdited",
      "type": "event"
    },
    {
      "anonymous": false,
      "inputs": [],
      "name": "RequestCancelled",
      "type": "event"
    },
    {
      "anonymous": false,
      "inputs": [
        {
          "indexed": false,
          "internalType": "address",
          "name": "storageManager",
          "type": "address"
        }
      ],
      "name": "RequestCreated",
      "type": "event"
    },
    {
      "anonymous": false,
      "inputs": [
        {
          "indexed": false,
          "internalType": "string",
          "name": "requestType",
          "type": "string"
        },
        {
          "indexed": false,
          "internalType": "string",
          "name": "ipfsHash",
          "type": "string"
        },
        {
          "indexed": true,
          "internalType": "address",
          "name": "payer",
          "type": "address"
        },
        {
          "indexed": true,
          "internalType": "address",
          "name": "payee",
          "type": "address"
        },
        {
          "indexed": true,
          "internalType": "address",
          "name": "asset",
          "type": "address"
        },
        {
          "indexed": false,
          "internalType": "uint256",
          "name": "amount",
          "type": "uint256"
        }
      ],
      "name": "RequestInitialized",
      "type": "event"
    },
    {
      "anonymous": false,
      "inputs": [
        {
          "indexed": true,
          "internalType": "address",
          "name": "implementation",
          "type": "address"
        }
      ],
      "name": "Upgraded",
      "type": "event"
    },
    {
      "inputs": [],
      "name": "UPGRADE_INTERFACE_VERSION",
      "outputs": [
        {
          "internalType": "string",
          "name": "",
          "type": "string"
        }
      ],
      "stateMutability": "view",
      "type": "function"
    },
    {
      "inputs": [
        {
          "internalType": "bytes",
          "name": "signature",
          "type": "bytes"
        }
      ],
      "name": "accept",
      "outputs": [],
      "stateMutability": "nonpayable",
      "type": "function"
    },
    {
      "inputs": [],
      "name": "amount",
      "outputs": [
        {
          "internalType": "uint256",
          "name": "",
          "type": "uint256"
        }
      ],
      "stateMutability": "view",
      "type": "function"
    },
    {
      "inputs": [],
      "name": "asset",
      "outputs": [
        {
          "internalType": "address",
          "name": "",
          "type": "address"
        }
      ],
      "stateMutability": "view",
      "type": "function"
    },
    {
      "inputs": [
        {
          "internalType": "bytes",
          "name": "signature",
          "type": "bytes"
        }
      ],
      "name": "cancel",
      "outputs": [],
      "stateMutability": "nonpayable",
      "type": "function"
    },
    {
      "inputs": [
        {
          "internalType": "uint256",
          "name": "_amount",
          "type": "uint256"
        },
        {
          "internalType": "bytes",
          "name": "signature",
          "type": "bytes"
        }
      ],
      "name": "edit",
      "outputs": [],
      "stateMutability": "nonpayable",
      "type": "function"
    },
    {
      "inputs": [
        {
          "internalType": "string",
          "name": "action",
          "type": "string"
        },
        {
          "internalType": "bytes",
          "name": "data",
          "type": "bytes"
        }
      ],
      "name": "getMessageHash",
      "outputs": [
        {
          "internalType": "bytes32",
          "name": "",
          "type": "bytes32"
        }
      ],
      "stateMutability": "view",
      "type": "function"
    },
    {
      "inputs": [
        {
          "internalType": "string",
          "name": "_type",
          "type": "string"
        },
        {
          "internalType": "string",
          "name": "_ipfsHash",
          "type": "string"
        },
        {
          "internalType": "address",
          "name": "_payer",
          "type": "address"
        },
        {
          "internalType": "address",
          "name": "_payee",
          "type": "address"
        },
        {
          "internalType": "address",
          "name": "_asset",
          "type": "address"
        },
        {
          "internalType": "uint256",
          "name": "_amount",
          "type": "uint256"
        }
      ],
      "name": "initialize",
      "outputs": [],
      "stateMutability": "nonpayable",
      "type": "function"
    },
    {
      "inputs": [],
      "name": "payee",
      "outputs": [
        {
          "internalType": "address",
          "name": "",
          "type": "address"
        }
      ],
      "stateMutability": "view",
      "type": "function"
    },
    {
      "inputs": [],
      "name": "payer",
      "outputs": [
        {
          "internalType": "address",
          "name": "",
          "type": "address"
        }
      ],
      "stateMutability": "view",
      "type": "function"
    },
    {
      "inputs": [],
      "name": "proxiableUUID",
      "outputs": [
        {
          "internalType": "bytes32",
          "name": "",
          "type": "bytes32"
        }
      ],
      "stateMutability": "view",
      "type": "function"
    },
    {
      "inputs": [],
      "name": "requestData",
      "outputs": [
        {
          "internalType": "string",
          "name": "requestType",
          "type": "string"
        },
        {
          "internalType": "enum Request.Status",
          "name": "status",
          "type": "uint8"
        },
        {
          "internalType": "string",
          "name": "ipfsHash",
          "type": "string"
        }
      ],
      "stateMutability": "view",
      "type": "function"
    },
    {
      "inputs": [],
      "name": "storageManager",
      "outputs": [
        {
          "internalType": "address",
          "name": "",
          "type": "address"
        }
      ],
      "stateMutability": "view",
      "type": "function"
    },
    {
      "inputs": [
        {
          "internalType": "address",
          "name": "newImplementation",
          "type": "address"
        },
        {
          "internalType": "bytes",
          "name": "data",
          "type": "bytes"
        }
      ],
      "name": "upgradeToAndCall",
      "outputs": [],
      "stateMutability": "payable",
      "type": "function"
    }
  ],
  "bytecode": "0x60c06040523073ffffffffffffffffffffffffffffffffffffffff1660809073ffffffffffffffffffffffffffffffffffffffff168152503480156200004457600080fd5b50604051620028ab380380620028ab83398181016040528101906200006a91906200028a565b8073ffffffffffffffffffffffffffffffffffffffff1660a08173ffffffffffffffffffffffffffffffffffffffff16815250507f60dc38bed424a87163b4220b98edb283977533b0a85a5743f8d35c28fd495e4781604051620000cf9190620002cd565b60405180910390a1620000e7620000ee60201b60201c565b506200032c565b600062000100620001f860201b60201c565b90508060000160089054906101000a900460ff16156200014c576040517ff92ee8a900000000000000000000000000000000000000000000000000000000815260040160405180910390fd5b67ffffffffffffffff80168160000160009054906101000a900467ffffffffffffffff1667ffffffffffffffff1614620001f55767ffffffffffffffff8160000160006101000a81548167ffffffffffffffff021916908367ffffffffffffffff1602179055507fc7f505b2f371ae2175ee4913f4499e1f2633a7b5936321eed1cdaeb6115181d267ffffffffffffffff604051620001ec91906200030f565b60405180910390a15b50565b60007ff0c57e16840df040f15088dc2f81fe391c3923bec73e23a9662efc9c229c6a00905090565b600080fd5b600073ffffffffffffffffffffffffffffffffffffffff82169050919050565b6000620002528262000225565b9050919050565b620002648162000245565b81146200027057600080fd5b50565b600081519050620002848162000259565b92915050565b600060208284031215620002a357620002a262000220565b5b6000620002b38482850162000273565b91505092915050565b620002c78162000245565b82525050565b6000602082019050620002e46000830184620002bc565b92915050565b600067ffffffffffffffff82169050919050565b6200030981620002ea565b82525050565b6000602082019050620003266000830184620002fe565b92915050565b60805160a05161254b620003606000396000610740015260008181610c2401528181610c790152610e37015261254b6000f3fe6080604052600436106100dd5760003560e01c80639b105b031161007f578063ad3cb1cc11610059578063ad3cb1cc14610291578063ae90b213146102bc578063afafb797146102e7578063edf3e29e14610310576100dd565b80639b105b03146102125780639cf001fe1461023b578063aa8c217c14610266576100dd565b80634f1ef286116100bb5780634f1ef2861461016157806352d1902d1461017d578063606deecd146101a857806387945a29146101d5576100dd565b8063123119cd146100e257806338d52e0f1461010d5780633c5beeb414610138575b600080fd5b3480156100ee57600080fd5b506100f7610339565b604051610104919061178f565b60405180910390f35b34801561011957600080fd5b5061012261035f565b60405161012f919061178f565b60405180910390f35b34801561014457600080fd5b5061015f600480360381019061015a9190611904565b610385565b005b61017b60048036038101906101769190611979565b61049c565b005b34801561018957600080fd5b506101926104bb565b60405161019f91906119ee565b60405180910390f35b3480156101b457600080fd5b506101bd6104ee565b6040516101cc93929190611aff565b60405180910390f35b3480156101e157600080fd5b506101fc60048036038101906101f79190611be5565b610623565b60405161020991906119ee565b60405180910390f35b34801561021e57600080fd5b5061023960048036038101906102349190611c93565b610658565b005b34801561024757600080fd5b5061025061073e565b60405161025d919061178f565b60405180910390f35b34801561027257600080fd5b5061027b610762565b6040516102889190611cfe565b60405180910390f35b34801561029d57600080fd5b506102a6610768565b6040516102b39190611d19565b60405180910390f35b3480156102c857600080fd5b506102d16107a1565b6040516102de919061178f565b60405180910390f35b3480156102f357600080fd5b5061030e60048036038101906103099190611904565b6107c7565b005b34801561031c57600080fd5b5061033760048036038101906103329190611d3b565b61095f565b005b600360009054906101000a900473ffffffffffffffffffffffffffffffffffffffff1681565b600560009054906101000a900473ffffffffffffffffffffffffffffffffffffffff1681565b6040518060400160405280600681526020017f63616e63656c00000000000000000000000000000000000000000000000000008152506040518060400160405280600281526020017f3078000000000000000000000000000000000000000000000000000000000000815250826103fd838383610af8565b61043c576040517f08c379a000000000000000000000000000000000000000000000000000000000815260040161043390611e72565b60405180910390fd5b6001600060010160006101000a81548160ff0219169083600281111561046557610464611a88565b5b02179055507fe3cf22582e19c83f9712ecd126853261074cae00a6ef48a245d48866a5a9ed5660405160405180910390a150505050565b6104a4610c22565b6104ad82610d08565b6104b78282610d16565b5050565b60006104c5610e35565b7f360894a13ba1a3210667c828492db98dca3e2076cc3735a920a3ca505d382bbc60001b905090565b60008060000180546104ff90611ec1565b80601f016020809104026020016040519081016040528092919081815260200182805461052b90611ec1565b80156105785780601f1061054d57610100808354040283529160200191610578565b820191906000526020600020905b81548152906001019060200180831161055b57829003601f168201915b5050505050908060010160009054906101000a900460ff16908060020180546105a090611ec1565b80601f01602080910402602001604051908101604052809291908181526020018280546105cc90611ec1565b80156106195780601f106105ee57610100808354040283529160200191610619565b820191906000526020600020905b8154815290600101906020018083116105fc57829003601f168201915b5050505050905083565b600030838360405160200161063a93929190611fbd565b60405160208183030381529060405280519060200120905092915050565b6040518060400160405280600481526020017f65646974000000000000000000000000000000000000000000000000000000008152508260405160200161069f9190611cfe565b604051602081830303815290604052826106ba838383610af8565b6106f9576040517f08c379a00000000000000000000000000000000000000000000000000000000081526004016106f090611e72565b60405180910390fd5b846006819055507fabda4f26af3d5cede0dc6421388320068c381b47bcb0466a6e6d4f24357e50668560405161072f9190611cfe565b60405180910390a15050505050565b7f000000000000000000000000000000000000000000000000000000000000000081565b60065481565b6040518060400160405280600581526020017f352e302e3000000000000000000000000000000000000000000000000000000081525081565b600460009054906101000a900473ffffffffffffffffffffffffffffffffffffffff1681565b6040518060400160405280600681526020017f616363657074000000000000000000000000000000000000000000000000000081525081600360009054906101000a900473ffffffffffffffffffffffffffffffffffffffff1673ffffffffffffffffffffffffffffffffffffffff163373ffffffffffffffffffffffffffffffffffffffff1614806108c157506108c0610897836040518060400160405280600281526020017f3078000000000000000000000000000000000000000000000000000000000000815250610623565b82600360009054906101000a900473ffffffffffffffffffffffffffffffffffffffff16610ebc565b5b610900576040517f08c379a00000000000000000000000000000000000000000000000000000000081526004016108f790612064565b60405180910390fd5b6002600060010160006101000a81548160ff0219169083600281111561092957610928611a88565b5b02179055507fbe219ebed7ff12f402bb60173ee6ee467a686964227f0d4e194ff8c67c71337760405160405180910390a1505050565b6000610969610f30565b905060008160000160089054906101000a900460ff1615905060008260000160009054906101000a900467ffffffffffffffff1690506000808267ffffffffffffffff161480156109b75750825b9050600060018367ffffffffffffffff161480156109ec575060003073ffffffffffffffffffffffffffffffffffffffff163b145b9050811580156109fa575080155b15610a31576040517ff92ee8a900000000000000000000000000000000000000000000000000000000815260040160405180910390fd5b60018560000160006101000a81548167ffffffffffffffff021916908367ffffffffffffffff1602179055508315610a815760018560000160086101000a81548160ff0219169083151502179055505b610a8f8b8b8b8b8b8b610f58565b8315610aeb5760008560000160086101000a81548160ff0219169083151502179055507fc7f505b2f371ae2175ee4913f4499e1f2633a7b5936321eed1cdaeb6115181d26001604051610ae291906120dd565b60405180910390a15b5050505050505050505050565b600080610b058585610623565b9050600360009054906101000a900473ffffffffffffffffffffffffffffffffffffffff1673ffffffffffffffffffffffffffffffffffffffff163373ffffffffffffffffffffffffffffffffffffffff161480610bb05750600460009054906101000a900473ffffffffffffffffffffffffffffffffffffffff1673ffffffffffffffffffffffffffffffffffffffff163373ffffffffffffffffffffffffffffffffffffffff16145b80610be45750610be38184600360009054906101000a900473ffffffffffffffffffffffffffffffffffffffff16610ebc565b5b80610c185750610c178184600460009054906101000a900473ffffffffffffffffffffffffffffffffffffffff16610ebc565b5b9150509392505050565b7f000000000000000000000000000000000000000000000000000000000000000073ffffffffffffffffffffffffffffffffffffffff163073ffffffffffffffffffffffffffffffffffffffff161480610ccf57507f000000000000000000000000000000000000000000000000000000000000000073ffffffffffffffffffffffffffffffffffffffff16610cb6611138565b73ffffffffffffffffffffffffffffffffffffffff1614155b15610d06576040517fe07c8dba00000000000000000000000000000000000000000000000000000000815260040160405180910390fd5b565b6000610d1357600080fd5b50565b8173ffffffffffffffffffffffffffffffffffffffff166352d1902d6040518163ffffffff1660e01b8152600401602060405180830381865afa925050508015610d7e57506040513d601f19601f82011682018060405250810190610d7b9190612124565b60015b610dbf57816040517f4c9c8ce3000000000000000000000000000000000000000000000000000000008152600401610db6919061178f565b60405180910390fd5b7f360894a13ba1a3210667c828492db98dca3e2076cc3735a920a3ca505d382bbc60001b8114610e2657806040517faa1d49a4000000000000000000000000000000000000000000000000000000008152600401610e1d91906119ee565b60405180910390fd5b610e30838361118f565b505050565b7f000000000000000000000000000000000000000000000000000000000000000073ffffffffffffffffffffffffffffffffffffffff163073ffffffffffffffffffffffffffffffffffffffff1614610eba576040517fe07c8dba00000000000000000000000000000000000000000000000000000000815260040160405180910390fd5b565b60008084604051602001610ed091906121be565b6040516020818303038152906040528051906020012090506000610ef48286611202565b90508373ffffffffffffffffffffffffffffffffffffffff168173ffffffffffffffffffffffffffffffffffffffff1614925050509392505050565b60007ff0c57e16840df040f15088dc2f81fe391c3923bec73e23a9662efc9c229c6a00905090565b604051806060016040528087815260200160006002811115610f7d57610f7c611a88565b5b815260200186815250600080820151816000019081610f9c9190612386565b5060208201518160010160006101000a81548160ff02191690836002811115610fc857610fc7611a88565b5b02179055506040820151816002019081610fe29190612386565b5090505083600360006101000a81548173ffffffffffffffffffffffffffffffffffffffff021916908373ffffffffffffffffffffffffffffffffffffffff16021790555082600460006101000a81548173ffffffffffffffffffffffffffffffffffffffff021916908373ffffffffffffffffffffffffffffffffffffffff16021790555081600560006101000a81548173ffffffffffffffffffffffffffffffffffffffff021916908373ffffffffffffffffffffffffffffffffffffffff160217905550806006819055508173ffffffffffffffffffffffffffffffffffffffff168373ffffffffffffffffffffffffffffffffffffffff168573ffffffffffffffffffffffffffffffffffffffff167f0fef4fcb5c89f7ca112a81e584169d9acd1b26d6d317b755bbf2eda0ee093d8489898660405161112893929190612458565b60405180910390a4505050505050565b60006111667f360894a13ba1a3210667c828492db98dca3e2076cc3735a920a3ca505d382bbc60001b61122e565b60000160009054906101000a900473ffffffffffffffffffffffffffffffffffffffff16905090565b61119882611238565b8173ffffffffffffffffffffffffffffffffffffffff167fbc7cd75a20ee27fd9adebab32041f755214dbc6bffa90cc0225b39da2e5c2d3b60405160405180910390a26000815111156111f5576111ef8282611305565b506111fe565b6111fd611389565b5b5050565b60008060008061121286866113c6565b9250925092506112228282611422565b82935050505092915050565b6000819050919050565b60008173ffffffffffffffffffffffffffffffffffffffff163b0361129457806040517f4c9c8ce300000000000000000000000000000000000000000000000000000000815260040161128b919061178f565b60405180910390fd5b806112c17f360894a13ba1a3210667c828492db98dca3e2076cc3735a920a3ca505d382bbc60001b61122e565b60000160006101000a81548173ffffffffffffffffffffffffffffffffffffffff021916908373ffffffffffffffffffffffffffffffffffffffff16021790555050565b60606000808473ffffffffffffffffffffffffffffffffffffffff168460405161132f919061249d565b600060405180830381855af49150503d806000811461136a576040519150601f19603f3d011682016040523d82523d6000602084013e61136f565b606091505b509150915061137f858383611586565b9250505092915050565b60003411156113c4576040517fb398979f00000000000000000000000000000000000000000000000000000000815260040160405180910390fd5b565b6000806000604184510361140b5760008060006020870151925060408701519150606087015160001a90506113fd88828585611615565b95509550955050505061141b565b60006002855160001b9250925092505b9250925092565b6000600381111561143657611435611a88565b5b82600381111561144957611448611a88565b5b0315611582576001600381111561146357611462611a88565b5b82600381111561147657611475611a88565b5b036114ad576040517ff645eedf00000000000000000000000000000000000000000000000000000000815260040160405180910390fd5b600260038111156114c1576114c0611a88565b5b8260038111156114d4576114d3611a88565b5b03611519578060001c6040517ffce698f70000000000000000000000000000000000000000000000000000000081526004016115109190611cfe565b60405180910390fd5b60038081111561152c5761152b611a88565b5b82600381111561153f5761153e611a88565b5b0361158157806040517fd78bce0c00000000000000000000000000000000000000000000000000000000815260040161157891906119ee565b60405180910390fd5b5b5050565b60608261159b5761159682611709565b61160d565b600082511480156115c3575060008473ffffffffffffffffffffffffffffffffffffffff163b145b1561160557836040517f9996b3150000000000000000000000000000000000000000000000000000000081526004016115fc919061178f565b60405180910390fd5b81905061160e565b5b9392505050565b60008060007f7fffffffffffffffffffffffffffffff5d576e7357a4501ddfe92f46681b20a08460001c11156116555760006003859250925092506116ff565b60006001888888886040516000815260200160405260405161167a94939291906124d0565b6020604051602081039080840390855afa15801561169c573d6000803e3d6000fd5b505050602060405103519050600073ffffffffffffffffffffffffffffffffffffffff168173ffffffffffffffffffffffffffffffffffffffff16036116f057600060016000801b935093509350506116ff565b8060008060001b935093509350505b9450945094915050565b60008151111561171c5780518082602001fd5b6040517f1425ea4200000000000000000000000000000000000000000000000000000000815260040160405180910390fd5b600073ffffffffffffffffffffffffffffffffffffffff82169050919050565b60006117798261174e565b9050919050565b6117898161176e565b82525050565b60006020820190506117a46000830184611780565b92915050565b6000604051905090565b600080fd5b600080fd5b600080fd5b600080fd5b6000601f19601f8301169050919050565b7f4e487b7100000000000000000000000000000000000000000000000000000000600052604160045260246000fd5b611811826117c8565b810181811067ffffffffffffffff821117156118305761182f6117d9565b5b80604052505050565b60006118436117aa565b905061184f8282611808565b919050565b600067ffffffffffffffff82111561186f5761186e6117d9565b5b611878826117c8565b9050602081019050919050565b82818337600083830152505050565b60006118a76118a284611854565b611839565b9050828152602081018484840111156118c3576118c26117c3565b5b6118ce848285611885565b509392505050565b600082601f8301126118eb576118ea6117be565b5b81356118fb848260208601611894565b91505092915050565b60006020828403121561191a576119196117b4565b5b600082013567ffffffffffffffff811115611938576119376117b9565b5b611944848285016118d6565b91505092915050565b6119568161176e565b811461196157600080fd5b50565b6000813590506119738161194d565b92915050565b600080604083850312156119905761198f6117b4565b5b600061199e85828601611964565b925050602083013567ffffffffffffffff8111156119bf576119be6117b9565b5b6119cb858286016118d6565b9150509250929050565b6000819050919050565b6119e8816119d5565b82525050565b6000602082019050611a0360008301846119df565b92915050565b600081519050919050565b600082825260208201905092915050565b60005b83811015611a43578082015181840152602081019050611a28565b60008484015250505050565b6000611a5a82611a09565b611a648185611a14565b9350611a74818560208601611a25565b611a7d816117c8565b840191505092915050565b7f4e487b7100000000000000000000000000000000000000000000000000000000600052602160045260246000fd5b60038110611ac857611ac7611a88565b5b50565b6000819050611ad982611ab7565b919050565b6000611ae982611acb565b9050919050565b611af981611ade565b82525050565b60006060820190508181036000830152611b198186611a4f565b9050611b286020830185611af0565b8181036040830152611b3a8184611a4f565b9050949350505050565b600067ffffffffffffffff821115611b5f57611b5e6117d9565b5b611b68826117c8565b9050602081019050919050565b6000611b88611b8384611b44565b611839565b905082815260208101848484011115611ba457611ba36117c3565b5b611baf848285611885565b509392505050565b600082601f830112611bcc57611bcb6117be565b5b8135611bdc848260208601611b75565b91505092915050565b60008060408385031215611bfc57611bfb6117b4565b5b600083013567ffffffffffffffff811115611c1a57611c196117b9565b5b611c2685828601611bb7565b925050602083013567ffffffffffffffff811115611c4757611c466117b9565b5b611c53858286016118d6565b9150509250929050565b6000819050919050565b611c7081611c5d565b8114611c7b57600080fd5b50565b600081359050611c8d81611c67565b92915050565b60008060408385031215611caa57611ca96117b4565b5b6000611cb885828601611c7e565b925050602083013567ffffffffffffffff811115611cd957611cd86117b9565b5b611ce5858286016118d6565b9150509250929050565b611cf881611c5d565b82525050565b6000602082019050611d136000830184611cef565b92915050565b60006020820190508181036000830152611d338184611a4f565b905092915050565b60008060008060008060c08789031215611d5857611d576117b4565b5b600087013567ffffffffffffffff811115611d7657611d756117b9565b5b611d8289828a01611bb7565b965050602087013567ffffffffffffffff811115611da357611da26117b9565b5b611daf89828a01611bb7565b9550506040611dc089828a01611964565b9450506060611dd189828a01611964565b9350506080611de289828a01611964565b92505060a0611df389828a01611c7e565b9150509295509295509295565b7f4e6f7420617574686f72697a6564206f7220696e76616c6964207369676e617460008201527f7572650000000000000000000000000000000000000000000000000000000000602082015250565b6000611e5c602383611a14565b9150611e6782611e00565b604082019050919050565b60006020820190508181036000830152611e8b81611e4f565b9050919050565b7f4e487b7100000000000000000000000000000000000000000000000000000000600052602260045260246000fd5b60006002820490506001821680611ed957607f821691505b602082108103611eec57611eeb611e92565b5b50919050565b60008160601b9050919050565b6000611f0a82611ef2565b9050919050565b6000611f1c82611eff565b9050919050565b611f34611f2f8261176e565b611f11565b82525050565b600081905092915050565b6000611f5082611a09565b611f5a8185611f3a565b9350611f6a818560208601611a25565b80840191505092915050565b600081519050919050565b600081905092915050565b6000611f9782611f76565b611fa18185611f81565b9350611fb1818560208601611a25565b80840191505092915050565b6000611fc98286611f23565b601482019150611fd98285611f45565b9150611fe58284611f8c565b9150819050949350505050565b7f4f6e6c792070617965722063616e20706572666f726d2074686973206163746960008201527f6f6e000000000000000000000000000000000000000000000000000000000000602082015250565b600061204e602283611a14565b915061205982611ff2565b604082019050919050565b6000602082019050818103600083015261207d81612041565b9050919050565b6000819050919050565b600067ffffffffffffffff82169050919050565b6000819050919050565b60006120c76120c26120bd84612084565b6120a2565b61208e565b9050919050565b6120d7816120ac565b82525050565b60006020820190506120f260008301846120ce565b92915050565b612101816119d5565b811461210c57600080fd5b50565b60008151905061211e816120f8565b92915050565b60006020828403121561213a576121396117b4565b5b60006121488482850161210f565b91505092915050565b7f19457468657265756d205369676e6564204d6573736167653a0a333200000000600082015250565b6000612187601c83611f3a565b915061219282612151565b601c82019050919050565b6000819050919050565b6121b86121b3826119d5565b61219d565b82525050565b60006121c98261217a565b91506121d582846121a7565b60208201915081905092915050565b60008190508160005260206000209050919050565b60006020601f8301049050919050565b600082821b905092915050565b6000600883026122467fffffffffffffffffffffffffffffffffffffffffffffffffffffffffffffffff82612209565b6122508683612209565b95508019841693508086168417925050509392505050565b600061228361227e61227984611c5d565b6120a2565b611c5d565b9050919050565b6000819050919050565b61229d83612268565b6122b16122a98261228a565b848454612216565b825550505050565b600090565b6122c66122b9565b6122d1818484612294565b505050565b5b818110156122f5576122ea6000826122be565b6001810190506122d7565b5050565b601f82111561233a5761230b816121e4565b612314846121f9565b81016020851015612323578190505b61233761232f856121f9565b8301826122d6565b50505b505050565b600082821c905092915050565b600061235d6000198460080261233f565b1980831691505092915050565b6000612376838361234c565b9150826002028217905092915050565b61238f82611a09565b67ffffffffffffffff8111156123a8576123a76117d9565b5b6123b28254611ec1565b6123bd8282856122f9565b600060209050601f8311600181146123f057600084156123de578287015190505b6123e8858261236a565b865550612450565b601f1984166123fe866121e4565b60005b8281101561242657848901518255600182019150602085019450602081019050612401565b86831015612443578489015161243f601f89168261234c565b8355505b6001600288020188555050505b505050505050565b600060608201905081810360008301526124728186611a4f565b905081810360208301526124868185611a4f565b90506124956040830184611cef565b949350505050565b60006124a98284611f8c565b915081905092915050565b600060ff82169050919050565b6124ca816124b4565b82525050565b60006080820190506124e560008301876119df565b6124f260208301866124c1565b6124ff60408301856119df565b61250c60608301846119df565b9594505050505056fea26469706673582212206975bfb0a3d7d23d8e265cba6668835488bc8d96cfe167b4e5588ed709574f4964736f6c63430008140033",
  "linkReferences": {},
  "deployedLinkReferences": {}
}