{
  "_format": "hh-sol-artifact-1",
  "contractName": "ERC20PaymentProxy",
  "sourceName": "contracts/ERC20PaymentProxy.sol",
  "abi": [
    {
      "anonymous": false,
      "inputs": [
        {
          "indexed": false,
          "internalType": "address",
          "name": "tokenAddress",
          "type": "address"
        },
        {
          "indexed": true,
          "internalType": "address",
          "name": "from",
          "type": "address"
        },
        {
          "indexed": true,
          "internalType": "address",
          "name": "to",
          "type": "address"
        },
        {
          "indexed": false,
          "internalType": "uint256",
          "name": "value",
          "type": "uint256"
        },
        {
          "indexed": true,
          "internalType": "address",
          "name": "referenceId",
          "type": "address"
        }
      ],
      "name": "TransferWithReferenceExecuted",
      "type": "event"
    },
    {
      "inputs": [
        {
          "internalType": "address",
          "name": "tokenAddress",
          "type": "address"
        },
        {
          "internalType": "address",
          "name": "to",
          "type": "address"
        },
        {
          "internalType": "uint256",
          "name": "value",
          "type": "uint256"
        },
        {
          "internalType": "address",
          "name": "referenceId",
          "type": "address"
        }
      ],
      "name": "transferWithReference",
      "outputs": [],
      "stateMutability": "nonpayable",
      "type": "function"
    },
    {
      "stateMutability": "payable",
      "type": "receive"
    }
  ],
  "bytecode": "0x608060405234801561001057600080fd5b506104db806100206000396000f3fe6080604052600436106100225760003560e01c80632bfd95b21461006757610062565b36610062576040517f08c379a000000000000000000000000000000000000000000000000000000000815260040161005990610236565b60405180910390fd5b600080fd5b34801561007357600080fd5b5061008e600480360381019061008991906102ef565b610090565b005b60008490508073ffffffffffffffffffffffffffffffffffffffff166323b872dd3386866040518463ffffffff1660e01b81526004016100d293929190610374565b6020604051808303816000875af11580156100f1573d6000803e3d6000fd5b505050506040513d601f19601f8201168201806040525081019061011591906103e3565b610154576040517f08c379a000000000000000000000000000000000000000000000000000000000815260040161014b9061045c565b60405180910390fd5b8173ffffffffffffffffffffffffffffffffffffffff168473ffffffffffffffffffffffffffffffffffffffff163373ffffffffffffffffffffffffffffffffffffffff167f244884e2f5ce756881446844e3611a7af51c4174beffb3ca72b3b18e9175df1088876040516101ca92919061047c565b60405180910390a45050505050565b600082825260208201905092915050565b7f54686520636f6e7472616374206973206e6f742070617961626c650000000000600082015250565b6000610220601b836101d9565b915061022b826101ea565b602082019050919050565b6000602082019050818103600083015261024f81610213565b9050919050565b600080fd5b600073ffffffffffffffffffffffffffffffffffffffff82169050919050565b60006102868261025b565b9050919050565b6102968161027b565b81146102a157600080fd5b50565b6000813590506102b38161028d565b92915050565b6000819050919050565b6102cc816102b9565b81146102d757600080fd5b50565b6000813590506102e9816102c3565b92915050565b6000806000806080858703121561030957610308610256565b5b6000610317878288016102a4565b9450506020610328878288016102a4565b9350506040610339878288016102da565b925050606061034a878288016102a4565b91505092959194509250565b61035f8161027b565b82525050565b61036e816102b9565b82525050565b60006060820190506103896000830186610356565b6103966020830185610356565b6103a36040830184610365565b949350505050565b60008115159050919050565b6103c0816103ab565b81146103cb57600080fd5b50565b6000815190506103dd816103b7565b92915050565b6000602082840312156103f9576103f8610256565b5b6000610407848285016103ce565b91505092915050565b7f5472616e7366657246726f6d20686173206661696c6564000000000000000000600082015250565b60006104466017836101d9565b915061045182610410565b602082019050919050565b6000602082019050818103600083015261047581610439565b9050919050565b60006040820190506104916000830185610356565b61049e6020830184610365565b939250505056fea26469706673582212206bb4b81a3999e2c48e698b8bd8e3f5978748f327a425b95a445ff9fe615951b764736f6c63430008140033",
  "linkReferences": {},
  "deployedLinkReferences": {}
}