{
  "_format": "hh-sol-artifact-1",
  "contractName": "RequestFactory",
  "sourceName": "contracts/RequestFactory.sol",
  "abi": [
    {
      "inputs": [
        {
          "internalType": "address",
          "name": "_storageManager",
          "type": "address"
        }
      ],
      "stateMutability": "nonpayable",
      "type": "constructor"
    },
    {
      "anonymous": false,
      "inputs": [
        {
          "indexed": true,
          "internalType": "address",
          "name": "newRequest",
          "type": "address"
        },
        {
          "indexed": false,
          "internalType": "string",
          "name": "requestType",
          "type": "string"
        },
        {
          "indexed": false,
          "internalType": "string",
          "name": "ipfsHash",
          "type": "string"
        },
        {
          "indexed": true,
          "internalType": "address",
          "name": "payer",
          "type": "address"
        },
        {
          "indexed": true,
          "internalType": "address",
          "name": "payee",
          "type": "address"
        },
        {
          "indexed": false,
          "internalType": "uint256",
          "name": "amount",
          "type": "uint256"
        }
      ],
      "name": "RequestDeployed",
      "type": "event"
    },
    {
      "inputs": [
        {
          "internalType": "string",
          "name": "requestType",
          "type": "string"
        },
        {
          "internalType": "string",
          "name": "ipfsHash",
          "type": "string"
        },
        {
          "internalType": "address",
          "name": "payer",
          "type": "address"
        },
        {
          "internalType": "address",
          "name": "payee",
          "type": "address"
        },
        {
          "internalType": "uint256",
          "name": "amount",
          "type": "uint256"
        },
        {
          "internalType": "uint256",
          "name": "salt",
          "type": "uint256"
        }
      ],
      "name": "createRequest",
      "outputs": [
        {
          "internalType": "contract Request",
          "name": "ret",
          "type": "address"
        }
      ],
      "stateMutability": "nonpayable",
      "type": "function"
    },
    {
      "inputs": [
        {
          "internalType": "string",
          "name": "requestType",
          "type": "string"
        },
        {
          "internalType": "string",
          "name": "ipfsHash",
          "type": "string"
        },
        {
          "internalType": "address",
          "name": "payer",
          "type": "address"
        },
        {
          "internalType": "address",
          "name": "payee",
          "type": "address"
        },
        {
          "internalType": "uint256",
          "name": "amount",
          "type": "uint256"
        },
        {
          "internalType": "uint256",
          "name": "salt",
          "type": "uint256"
        }
      ],
      "name": "getAddress",
      "outputs": [
        {
          "internalType": "address",
          "name": "",
          "type": "address"
        }
      ],
      "stateMutability": "view",
      "type": "function"
    },
    {
      "inputs": [],
      "name": "requestImplementation",
      "outputs": [
        {
          "internalType": "contract Request",
          "name": "",
          "type": "address"
        }
      ],
      "stateMutability": "view",
      "type": "function"
    }
  ],
  "bytecode": "0x60a06040523480156200001157600080fd5b5060405162003a7d38038062003a7d833981810160405281019062000037919062000122565b806040516200004690620000aa565b62000052919062000165565b604051809103906000f0801580156200006f573d6000803e3d6000fd5b5073ffffffffffffffffffffffffffffffffffffffff1660808173ffffffffffffffffffffffffffffffffffffffff16815250505062000182565b6127d280620012ab83390190565b600080fd5b600073ffffffffffffffffffffffffffffffffffffffff82169050919050565b6000620000ea82620000bd565b9050919050565b620000fc81620000dd565b81146200010857600080fd5b50565b6000815190506200011c81620000f1565b92915050565b6000602082840312156200013b576200013a620000b8565b5b60006200014b848285016200010b565b91505092915050565b6200015f81620000dd565b82525050565b60006020820190506200017c600083018462000154565b92915050565b608051611100620001ab6000396000818160db0152818161012f015261025701526111006000f3fe60806040523480156200001157600080fd5b5060043610620000465760003560e01c806368766287146200004b578063da60fc3e146200006d578063f0a7ff3914620000a3575b600080fd5b62000055620000d9565b6040516200006491906200047f565b60405180910390f35b6200008b600480360381019062000085919062000692565b620000fd565b6040516200009a91906200077d565b60405180910390f35b620000c16004803603810190620000bb919062000692565b6200020b565b604051620000d091906200047f565b60405180910390f35b7f000000000000000000000000000000000000000000000000000000000000000081565b6000620001ff8260001b604051806020016200011990620003e6565b6020820181038252601f19601f820116604052507f00000000000000000000000000000000000000000000000000000000000000008a8a8a8a8a6040516024016200016995949392919062000834565b60405160208183030381529060405263c9aba0aa60e01b6020820180517bffffffffffffffffffffffffffffffffffffffffffffffffffffffff8381831617835250505050604051602001620001c1929190620008fc565b604051602081830303815290604052604051602001620001e392919062000972565b60405160208183030381529060405280519060200120620003a4565b90509695505050505050565b6000806200021e888888888888620000fd565b905060008173ffffffffffffffffffffffffffffffffffffffff163b90506000811115620002515781925050506200039a565b8360001b7f00000000000000000000000000000000000000000000000000000000000000008a8a8a8a8a6040516024016200029195949392919062000834565b60405160208183030381529060405263c9aba0aa60e01b6020820180517bffffffffffffffffffffffffffffffffffffffffffffffffffffffff8381831617835250505050604051620002e490620003e6565b620002f1929190620008fc565b8190604051809103906000f590508015801562000312573d6000803e3d6000fd5b5092508573ffffffffffffffffffffffffffffffffffffffff168773ffffffffffffffffffffffffffffffffffffffff168473ffffffffffffffffffffffffffffffffffffffff167f1a7355ea1ac656260a603350f5b250b7743b587e2cbf9ce2ebf83bb1e0c390108c8c8a6040516200038f939291906200099a565b60405180910390a450505b9695505050505050565b6000620003b3838330620003bb565b905092915050565b6000604051836040820152846020820152828152600b810160ff815360558120925050509392505050565b6106e580620009e683390190565b600073ffffffffffffffffffffffffffffffffffffffff82169050919050565b6000819050919050565b60006200043f620004396200043384620003f4565b62000414565b620003f4565b9050919050565b600062000453826200041e565b9050919050565b6000620004678262000446565b9050919050565b62000479816200045a565b82525050565b60006020820190506200049660008301846200046e565b92915050565b6000604051905090565b600080fd5b600080fd5b600080fd5b600080fd5b6000601f19601f8301169050919050565b7f4e487b7100000000000000000000000000000000000000000000000000000000600052604160045260246000fd5b6200050582620004ba565b810181811067ffffffffffffffff82111715620005275762000526620004cb565b5b80604052505050565b60006200053c6200049c565b90506200054a8282620004fa565b919050565b600067ffffffffffffffff8211156200056d576200056c620004cb565b5b6200057882620004ba565b9050602081019050919050565b82818337600083830152505050565b6000620005ab620005a5846200054f565b62000530565b905082815260208101848484011115620005ca57620005c9620004b5565b5b620005d784828562000585565b509392505050565b600082601f830112620005f757620005f6620004b0565b5b81356200060984826020860162000594565b91505092915050565b60006200061f82620003f4565b9050919050565b620006318162000612565b81146200063d57600080fd5b50565b600081359050620006518162000626565b92915050565b6000819050919050565b6200066c8162000657565b81146200067857600080fd5b50565b6000813590506200068c8162000661565b92915050565b60008060008060008060c08789031215620006b257620006b1620004a6565b5b600087013567ffffffffffffffff811115620006d357620006d2620004ab565b5b620006e189828a01620005df565b965050602087013567ffffffffffffffff811115620007055762000704620004ab565b5b6200071389828a01620005df565b95505060406200072689828a0162000640565b94505060606200073989828a0162000640565b93505060806200074c89828a016200067b565b92505060a06200075f89828a016200067b565b9150509295509295509295565b620007778162000612565b82525050565b60006020820190506200079460008301846200076c565b92915050565b600081519050919050565b600082825260208201905092915050565b60005b83811015620007d6578082015181840152602081019050620007b9565b60008484015250505050565b6000620007ef826200079a565b620007fb8185620007a5565b93506200080d818560208601620007b6565b6200081881620004ba565b840191505092915050565b6200082e8162000657565b82525050565b600060a0820190508181036000830152620008508188620007e2565b90508181036020830152620008668187620007e2565b90506200087760408301866200076c565b6200088660608301856200076c565b62000895608083018462000823565b9695505050505050565b600081519050919050565b600082825260208201905092915050565b6000620008c8826200089f565b620008d48185620008aa565b9350620008e6818560208601620007b6565b620008f181620004ba565b840191505092915050565b60006040820190506200091360008301856200076c565b8181036020830152620009278184620008bb565b90509392505050565b600081905092915050565b600062000948826200089f565b62000954818562000930565b935062000966818560208601620007b6565b80840191505092915050565b60006200098082856200093b565b91506200098e82846200093b565b91508190509392505050565b60006060820190508181036000830152620009b68186620007e2565b90508181036020830152620009cc8185620007e2565b9050620009dd604083018462000823565b94935050505056fe60806040526040516106e53803806106e583398181016040528101906100259190610512565b610035828261003c60201b60201c565b50506105f6565b61004b826100c160201b60201c565b8173ffffffffffffffffffffffffffffffffffffffff167fbc7cd75a20ee27fd9adebab32041f755214dbc6bffa90cc0225b39da2e5c2d3b60405160405180910390a26000815111156100ae576100a8828261019460201b60201c565b506100bd565b6100bc61021e60201b60201c565b5b5050565b60008173ffffffffffffffffffffffffffffffffffffffff163b0361011d57806040517f4c9c8ce3000000000000000000000000000000000000000000000000000000008152600401610114919061057d565b60405180910390fd5b806101507f360894a13ba1a3210667c828492db98dca3e2076cc3735a920a3ca505d382bbc60001b61025b60201b60201c565b60000160006101000a81548173ffffffffffffffffffffffffffffffffffffffff021916908373ffffffffffffffffffffffffffffffffffffffff16021790555050565b60606000808473ffffffffffffffffffffffffffffffffffffffff16846040516101be91906105df565b600060405180830381855af49150503d80600081146101f9576040519150601f19603f3d011682016040523d82523d6000602084013e6101fe565b606091505b509150915061021485838361026560201b60201c565b9250505092915050565b6000341115610259576040517fb398979f00000000000000000000000000000000000000000000000000000000815260040160405180910390fd5b565b6000819050919050565b6060826102805761027b826102fa60201b60201c565b6102f2565b600082511480156102a8575060008473ffffffffffffffffffffffffffffffffffffffff163b145b156102ea57836040517f9996b3150000000000000000000000000000000000000000000000000000000081526004016102e1919061057d565b60405180910390fd5b8190506102f3565b5b9392505050565b60008151111561030d5780518082602001fd5b6040517f1425ea4200000000000000000000000000000000000000000000000000000000815260040160405180910390fd5b6000604051905090565b600080fd5b600080fd5b600073ffffffffffffffffffffffffffffffffffffffff82169050919050565b600061037e82610353565b9050919050565b61038e81610373565b811461039957600080fd5b50565b6000815190506103ab81610385565b92915050565b600080fd5b600080fd5b6000601f19601f8301169050919050565b7f4e487b7100000000000000000000000000000000000000000000000000000000600052604160045260246000fd5b610404826103bb565b810181811067ffffffffffffffff82111715610423576104226103cc565b5b80604052505050565b600061043661033f565b905061044282826103fb565b919050565b600067ffffffffffffffff821115610462576104616103cc565b5b61046b826103bb565b9050602081019050919050565b60005b8381101561049657808201518184015260208101905061047b565b60008484015250505050565b60006104b56104b084610447565b61042c565b9050828152602081018484840111156104d1576104d06103b6565b5b6104dc848285610478565b509392505050565b600082601f8301126104f9576104f86103b1565b5b81516105098482602086016104a2565b91505092915050565b6000806040838503121561052957610528610349565b5b60006105378582860161039c565b925050602083015167ffffffffffffffff8111156105585761055761034e565b5b610564858286016104e4565b9150509250929050565b61057781610373565b82525050565b6000602082019050610592600083018461056e565b92915050565b600081519050919050565b600081905092915050565b60006105b982610598565b6105c381856105a3565b93506105d3818560208601610478565b80840191505092915050565b60006105eb82846105ae565b915081905092915050565b60e1806106046000396000f3fe6080604052600a600c565b005b60186014601a565b6027565b565b60006022604c565b905090565b3660008037600080366000845af43d6000803e80600081146047573d6000f35b3d6000fd5b600060787f360894a13ba1a3210667c828492db98dca3e2076cc3735a920a3ca505d382bbc60001b60a1565b60000160009054906101000a900473ffffffffffffffffffffffffffffffffffffffff16905090565b600081905091905056fea2646970667358221220666166b4be92f730b7281640cc649e982f8accbe4de3628ba7019f65cfc2c72b64736f6c63430008140033a2646970667358221220172531b298e62cb3e9e18103d47cae8f3df77faf5c70fa436e2712d5315f455764736f6c6343000814003360c06040523073ffffffffffffffffffffffffffffffffffffffff1660809073ffffffffffffffffffffffffffffffffffffffff168152503480156200004457600080fd5b50604051620027d2380380620027d283398181016040528101906200006a91906200028a565b8073ffffffffffffffffffffffffffffffffffffffff1660a08173ffffffffffffffffffffffffffffffffffffffff16815250507f60dc38bed424a87163b4220b98edb283977533b0a85a5743f8d35c28fd495e4781604051620000cf9190620002cd565b60405180910390a1620000e7620000ee60201b60201c565b506200032c565b600062000100620001f860201b60201c565b90508060000160089054906101000a900460ff16156200014c576040517ff92ee8a900000000000000000000000000000000000000000000000000000000815260040160405180910390fd5b67ffffffffffffffff80168160000160009054906101000a900467ffffffffffffffff1667ffffffffffffffff1614620001f55767ffffffffffffffff8160000160006101000a81548167ffffffffffffffff021916908367ffffffffffffffff1602179055507fc7f505b2f371ae2175ee4913f4499e1f2633a7b5936321eed1cdaeb6115181d267ffffffffffffffff604051620001ec91906200030f565b60405180910390a15b50565b60007ff0c57e16840df040f15088dc2f81fe391c3923bec73e23a9662efc9c229c6a00905090565b600080fd5b600073ffffffffffffffffffffffffffffffffffffffff82169050919050565b6000620002528262000225565b9050919050565b620002648162000245565b81146200027057600080fd5b50565b600081519050620002848162000259565b92915050565b600060208284031215620002a357620002a262000220565b5b6000620002b38482850162000273565b91505092915050565b620002c78162000245565b82525050565b6000602082019050620002e46000830184620002bc565b92915050565b600067ffffffffffffffff82169050919050565b6200030981620002ea565b82525050565b6000602082019050620003266000830184620002fe565b92915050565b60805160a0516124726200036060003960006106d4015260008181610bb601528181610c0b0152610dc901526124726000f3fe6080604052600436106100c25760003560e01c80639b105b031161007f578063ad3cb1cc11610059578063ad3cb1cc1461024b578063ae90b21314610276578063afafb797146102a1578063c9aba0aa146102ca576100c2565b80639b105b03146101cc5780639cf001fe146101f5578063aa8c217c14610220576100c2565b8063123119cd146100c75780633c5beeb4146100f25780634f1ef2861461011b57806352d1902d14610137578063606deecd1461016257806387945a291461018f575b600080fd5b3480156100d357600080fd5b506100dc6102f3565b6040516100e991906116c8565b60405180910390f35b3480156100fe57600080fd5b506101196004803603810190610114919061183d565b610319565b005b610135600480360381019061013091906118b2565b610430565b005b34801561014357600080fd5b5061014c61044f565b6040516101599190611927565b60405180910390f35b34801561016e57600080fd5b50610177610482565b60405161018693929190611a38565b60405180910390f35b34801561019b57600080fd5b506101b660048036038101906101b19190611b1e565b6105b7565b6040516101c39190611927565b60405180910390f35b3480156101d857600080fd5b506101f360048036038101906101ee9190611bcc565b6105ec565b005b34801561020157600080fd5b5061020a6106d2565b60405161021791906116c8565b60405180910390f35b34801561022c57600080fd5b506102356106f6565b6040516102429190611c37565b60405180910390f35b34801561025757600080fd5b506102606106fc565b60405161026d9190611c52565b60405180910390f35b34801561028257600080fd5b5061028b610735565b60405161029891906116c8565b60405180910390f35b3480156102ad57600080fd5b506102c860048036038101906102c3919061183d565b61075b565b005b3480156102d657600080fd5b506102f160048036038101906102ec9190611c74565b6108f3565b005b600360009054906101000a900473ffffffffffffffffffffffffffffffffffffffff1681565b6040518060400160405280600681526020017f63616e63656c00000000000000000000000000000000000000000000000000008152506040518060400160405280600281526020017f307800000000000000000000000000000000000000000000000000000000000081525082610391838383610a8a565b6103d0576040517f08c379a00000000000000000000000000000000000000000000000000000000081526004016103c790611d99565b60405180910390fd5b6001600060010160006101000a81548160ff021916908360028111156103f9576103f86119c1565b5b02179055507fe3cf22582e19c83f9712ecd126853261074cae00a6ef48a245d48866a5a9ed5660405160405180910390a150505050565b610438610bb4565b61044182610c9a565b61044b8282610ca8565b5050565b6000610459610dc7565b7f360894a13ba1a3210667c828492db98dca3e2076cc3735a920a3ca505d382bbc60001b905090565b600080600001805461049390611de8565b80601f01602080910402602001604051908101604052809291908181526020018280546104bf90611de8565b801561050c5780601f106104e15761010080835404028352916020019161050c565b820191906000526020600020905b8154815290600101906020018083116104ef57829003601f168201915b5050505050908060010160009054906101000a900460ff169080600201805461053490611de8565b80601f016020809104026020016040519081016040528092919081815260200182805461056090611de8565b80156105ad5780601f10610582576101008083540402835291602001916105ad565b820191906000526020600020905b81548152906001019060200180831161059057829003601f168201915b5050505050905083565b60003083836040516020016105ce93929190611ee4565b60405160208183030381529060405280519060200120905092915050565b6040518060400160405280600481526020017f6564697400000000000000000000000000000000000000000000000000000000815250826040516020016106339190611c37565b6040516020818303038152906040528261064e838383610a8a565b61068d576040517f08c379a000000000000000000000000000000000000000000000000000000000815260040161068490611d99565b60405180910390fd5b846005819055507fabda4f26af3d5cede0dc6421388320068c381b47bcb0466a6e6d4f24357e5066856040516106c39190611c37565b60405180910390a15050505050565b7f000000000000000000000000000000000000000000000000000000000000000081565b60055481565b6040518060400160405280600581526020017f352e302e3000000000000000000000000000000000000000000000000000000081525081565b600460009054906101000a900473ffffffffffffffffffffffffffffffffffffffff1681565b6040518060400160405280600681526020017f616363657074000000000000000000000000000000000000000000000000000081525081600360009054906101000a900473ffffffffffffffffffffffffffffffffffffffff1673ffffffffffffffffffffffffffffffffffffffff163373ffffffffffffffffffffffffffffffffffffffff161480610855575061085461082b836040518060400160405280600281526020017f30780000000000000000000000000000000000000000000000000000000000008152506105b7565b82600360009054906101000a900473ffffffffffffffffffffffffffffffffffffffff16610e4e565b5b610894576040517f08c379a000000000000000000000000000000000000000000000000000000000815260040161088b90611f8b565b60405180910390fd5b6002600060010160006101000a81548160ff021916908360028111156108bd576108bc6119c1565b5b02179055507fbe219ebed7ff12f402bb60173ee6ee467a686964227f0d4e194ff8c67c71337760405160405180910390a1505050565b60006108fd610ec2565b905060008160000160089054906101000a900460ff1615905060008260000160009054906101000a900467ffffffffffffffff1690506000808267ffffffffffffffff1614801561094b5750825b9050600060018367ffffffffffffffff16148015610980575060003073ffffffffffffffffffffffffffffffffffffffff163b145b90508115801561098e575080155b156109c5576040517ff92ee8a900000000000000000000000000000000000000000000000000000000815260040160405180910390fd5b60018560000160006101000a81548167ffffffffffffffff021916908367ffffffffffffffff1602179055508315610a155760018560000160086101000a81548160ff0219169083151502179055505b610a228a8a8a8a8a610eea565b8315610a7e5760008560000160086101000a81548160ff0219169083151502179055507fc7f505b2f371ae2175ee4913f4499e1f2633a7b5936321eed1cdaeb6115181d26001604051610a759190612004565b60405180910390a15b50505050505050505050565b600080610a9785856105b7565b9050600360009054906101000a900473ffffffffffffffffffffffffffffffffffffffff1673ffffffffffffffffffffffffffffffffffffffff163373ffffffffffffffffffffffffffffffffffffffff161480610b425750600460009054906101000a900473ffffffffffffffffffffffffffffffffffffffff1673ffffffffffffffffffffffffffffffffffffffff163373ffffffffffffffffffffffffffffffffffffffff16145b80610b765750610b758184600360009054906101000a900473ffffffffffffffffffffffffffffffffffffffff16610e4e565b5b80610baa5750610ba98184600460009054906101000a900473ffffffffffffffffffffffffffffffffffffffff16610e4e565b5b9150509392505050565b7f000000000000000000000000000000000000000000000000000000000000000073ffffffffffffffffffffffffffffffffffffffff163073ffffffffffffffffffffffffffffffffffffffff161480610c6157507f000000000000000000000000000000000000000000000000000000000000000073ffffffffffffffffffffffffffffffffffffffff16610c48611071565b73ffffffffffffffffffffffffffffffffffffffff1614155b15610c98576040517fe07c8dba00000000000000000000000000000000000000000000000000000000815260040160405180910390fd5b565b6000610ca557600080fd5b50565b8173ffffffffffffffffffffffffffffffffffffffff166352d1902d6040518163ffffffff1660e01b8152600401602060405180830381865afa925050508015610d1057506040513d601f19601f82011682018060405250810190610d0d919061204b565b60015b610d5157816040517f4c9c8ce3000000000000000000000000000000000000000000000000000000008152600401610d4891906116c8565b60405180910390fd5b7f360894a13ba1a3210667c828492db98dca3e2076cc3735a920a3ca505d382bbc60001b8114610db857806040517faa1d49a4000000000000000000000000000000000000000000000000000000008152600401610daf9190611927565b60405180910390fd5b610dc283836110c8565b505050565b7f000000000000000000000000000000000000000000000000000000000000000073ffffffffffffffffffffffffffffffffffffffff163073ffffffffffffffffffffffffffffffffffffffff1614610e4c576040517fe07c8dba00000000000000000000000000000000000000000000000000000000815260040160405180910390fd5b565b60008084604051602001610e6291906120e5565b6040516020818303038152906040528051906020012090506000610e86828661113b565b90508373ffffffffffffffffffffffffffffffffffffffff168173ffffffffffffffffffffffffffffffffffffffff1614925050509392505050565b60007ff0c57e16840df040f15088dc2f81fe391c3923bec73e23a9662efc9c229c6a00905090565b604051806060016040528086815260200160006002811115610f0f57610f0e6119c1565b5b815260200185815250600080820151816000019081610f2e91906122ad565b5060208201518160010160006101000a81548160ff02191690836002811115610f5a57610f596119c1565b5b02179055506040820151816002019081610f7491906122ad565b5090505082600360006101000a81548173ffffffffffffffffffffffffffffffffffffffff021916908373ffffffffffffffffffffffffffffffffffffffff16021790555081600460006101000a81548173ffffffffffffffffffffffffffffffffffffffff021916908373ffffffffffffffffffffffffffffffffffffffff160217905550806005819055508173ffffffffffffffffffffffffffffffffffffffff168373ffffffffffffffffffffffffffffffffffffffff167f501be8d24259d2c2983bed83e5151c8e305f26f741dea930c53dac3686254c798787856040516110629392919061237f565b60405180910390a35050505050565b600061109f7f360894a13ba1a3210667c828492db98dca3e2076cc3735a920a3ca505d382bbc60001b611167565b60000160009054906101000a900473ffffffffffffffffffffffffffffffffffffffff16905090565b6110d182611171565b8173ffffffffffffffffffffffffffffffffffffffff167fbc7cd75a20ee27fd9adebab32041f755214dbc6bffa90cc0225b39da2e5c2d3b60405160405180910390a260008151111561112e57611128828261123e565b50611137565b6111366112c2565b5b5050565b60008060008061114b86866112ff565b92509250925061115b828261135b565b82935050505092915050565b6000819050919050565b60008173ffffffffffffffffffffffffffffffffffffffff163b036111cd57806040517f4c9c8ce30000000000000000000000000000000000000000000000000000000081526004016111c491906116c8565b60405180910390fd5b806111fa7f360894a13ba1a3210667c828492db98dca3e2076cc3735a920a3ca505d382bbc60001b611167565b60000160006101000a81548173ffffffffffffffffffffffffffffffffffffffff021916908373ffffffffffffffffffffffffffffffffffffffff16021790555050565b60606000808473ffffffffffffffffffffffffffffffffffffffff168460405161126891906123c4565b600060405180830381855af49150503d80600081146112a3576040519150601f19603f3d011682016040523d82523d6000602084013e6112a8565b606091505b50915091506112b88583836114bf565b9250505092915050565b60003411156112fd576040517fb398979f00000000000000000000000000000000000000000000000000000000815260040160405180910390fd5b565b600080600060418451036113445760008060006020870151925060408701519150606087015160001a90506113368882858561154e565b955095509550505050611354565b60006002855160001b9250925092505b9250925092565b6000600381111561136f5761136e6119c1565b5b826003811115611382576113816119c1565b5b03156114bb576001600381111561139c5761139b6119c1565b5b8260038111156113af576113ae6119c1565b5b036113e6576040517ff645eedf00000000000000000000000000000000000000000000000000000000815260040160405180910390fd5b600260038111156113fa576113f96119c1565b5b82600381111561140d5761140c6119c1565b5b03611452578060001c6040517ffce698f70000000000000000000000000000000000000000000000000000000081526004016114499190611c37565b60405180910390fd5b600380811115611465576114646119c1565b5b826003811115611478576114776119c1565b5b036114ba57806040517fd78bce0c0000000000000000000000000000000000000000000000000000000081526004016114b19190611927565b60405180910390fd5b5b5050565b6060826114d4576114cf82611642565b611546565b600082511480156114fc575060008473ffffffffffffffffffffffffffffffffffffffff163b145b1561153e57836040517f9996b31500000000000000000000000000000000000000000000000000000000815260040161153591906116c8565b60405180910390fd5b819050611547565b5b9392505050565b60008060007f7fffffffffffffffffffffffffffffff5d576e7357a4501ddfe92f46681b20a08460001c111561158e576000600385925092509250611638565b6000600188888888604051600081526020016040526040516115b394939291906123f7565b6020604051602081039080840390855afa1580156115d5573d6000803e3d6000fd5b505050602060405103519050600073ffffffffffffffffffffffffffffffffffffffff168173ffffffffffffffffffffffffffffffffffffffff160361162957600060016000801b93509350935050611638565b8060008060001b935093509350505b9450945094915050565b6000815111156116555780518082602001fd5b6040517f1425ea4200000000000000000000000000000000000000000000000000000000815260040160405180910390fd5b600073ffffffffffffffffffffffffffffffffffffffff82169050919050565b60006116b282611687565b9050919050565b6116c2816116a7565b82525050565b60006020820190506116dd60008301846116b9565b92915050565b6000604051905090565b600080fd5b600080fd5b600080fd5b600080fd5b6000601f19601f8301169050919050565b7f4e487b7100000000000000000000000000000000000000000000000000000000600052604160045260246000fd5b61174a82611701565b810181811067ffffffffffffffff8211171561176957611768611712565b5b80604052505050565b600061177c6116e3565b90506117888282611741565b919050565b600067ffffffffffffffff8211156117a8576117a7611712565b5b6117b182611701565b9050602081019050919050565b82818337600083830152505050565b60006117e06117db8461178d565b611772565b9050828152602081018484840111156117fc576117fb6116fc565b5b6118078482856117be565b509392505050565b600082601f830112611824576118236116f7565b5b81356118348482602086016117cd565b91505092915050565b600060208284031215611853576118526116ed565b5b600082013567ffffffffffffffff811115611871576118706116f2565b5b61187d8482850161180f565b91505092915050565b61188f816116a7565b811461189a57600080fd5b50565b6000813590506118ac81611886565b92915050565b600080604083850312156118c9576118c86116ed565b5b60006118d78582860161189d565b925050602083013567ffffffffffffffff8111156118f8576118f76116f2565b5b6119048582860161180f565b9150509250929050565b6000819050919050565b6119218161190e565b82525050565b600060208201905061193c6000830184611918565b92915050565b600081519050919050565b600082825260208201905092915050565b60005b8381101561197c578082015181840152602081019050611961565b60008484015250505050565b600061199382611942565b61199d818561194d565b93506119ad81856020860161195e565b6119b681611701565b840191505092915050565b7f4e487b7100000000000000000000000000000000000000000000000000000000600052602160045260246000fd5b60038110611a0157611a006119c1565b5b50565b6000819050611a12826119f0565b919050565b6000611a2282611a04565b9050919050565b611a3281611a17565b82525050565b60006060820190508181036000830152611a528186611988565b9050611a616020830185611a29565b8181036040830152611a738184611988565b9050949350505050565b600067ffffffffffffffff821115611a9857611a97611712565b5b611aa182611701565b9050602081019050919050565b6000611ac1611abc84611a7d565b611772565b905082815260208101848484011115611add57611adc6116fc565b5b611ae88482856117be565b509392505050565b600082601f830112611b0557611b046116f7565b5b8135611b15848260208601611aae565b91505092915050565b60008060408385031215611b3557611b346116ed565b5b600083013567ffffffffffffffff811115611b5357611b526116f2565b5b611b5f85828601611af0565b925050602083013567ffffffffffffffff811115611b8057611b7f6116f2565b5b611b8c8582860161180f565b9150509250929050565b6000819050919050565b611ba981611b96565b8114611bb457600080fd5b50565b600081359050611bc681611ba0565b92915050565b60008060408385031215611be357611be26116ed565b5b6000611bf185828601611bb7565b925050602083013567ffffffffffffffff811115611c1257611c116116f2565b5b611c1e8582860161180f565b9150509250929050565b611c3181611b96565b82525050565b6000602082019050611c4c6000830184611c28565b92915050565b60006020820190508181036000830152611c6c8184611988565b905092915050565b600080600080600060a08688031215611c9057611c8f6116ed565b5b600086013567ffffffffffffffff811115611cae57611cad6116f2565b5b611cba88828901611af0565b955050602086013567ffffffffffffffff811115611cdb57611cda6116f2565b5b611ce788828901611af0565b9450506040611cf88882890161189d565b9350506060611d098882890161189d565b9250506080611d1a88828901611bb7565b9150509295509295909350565b7f4e6f7420617574686f72697a6564206f7220696e76616c6964207369676e617460008201527f7572650000000000000000000000000000000000000000000000000000000000602082015250565b6000611d8360238361194d565b9150611d8e82611d27565b604082019050919050565b60006020820190508181036000830152611db281611d76565b9050919050565b7f4e487b7100000000000000000000000000000000000000000000000000000000600052602260045260246000fd5b60006002820490506001821680611e0057607f821691505b602082108103611e1357611e12611db9565b5b50919050565b60008160601b9050919050565b6000611e3182611e19565b9050919050565b6000611e4382611e26565b9050919050565b611e5b611e56826116a7565b611e38565b82525050565b600081905092915050565b6000611e7782611942565b611e818185611e61565b9350611e9181856020860161195e565b80840191505092915050565b600081519050919050565b600081905092915050565b6000611ebe82611e9d565b611ec88185611ea8565b9350611ed881856020860161195e565b80840191505092915050565b6000611ef08286611e4a565b601482019150611f008285611e6c565b9150611f0c8284611eb3565b9150819050949350505050565b7f4f6e6c792070617965722063616e20706572666f726d2074686973206163746960008201527f6f6e000000000000000000000000000000000000000000000000000000000000602082015250565b6000611f7560228361194d565b9150611f8082611f19565b604082019050919050565b60006020820190508181036000830152611fa481611f68565b9050919050565b6000819050919050565b600067ffffffffffffffff82169050919050565b6000819050919050565b6000611fee611fe9611fe484611fab565b611fc9565b611fb5565b9050919050565b611ffe81611fd3565b82525050565b60006020820190506120196000830184611ff5565b92915050565b6120288161190e565b811461203357600080fd5b50565b6000815190506120458161201f565b92915050565b600060208284031215612061576120606116ed565b5b600061206f84828501612036565b91505092915050565b7f19457468657265756d205369676e6564204d6573736167653a0a333200000000600082015250565b60006120ae601c83611e61565b91506120b982612078565b601c82019050919050565b6000819050919050565b6120df6120da8261190e565b6120c4565b82525050565b60006120f0826120a1565b91506120fc82846120ce565b60208201915081905092915050565b60008190508160005260206000209050919050565b60006020601f8301049050919050565b600082821b905092915050565b60006008830261216d7fffffffffffffffffffffffffffffffffffffffffffffffffffffffffffffffff82612130565b6121778683612130565b95508019841693508086168417925050509392505050565b60006121aa6121a56121a084611b96565b611fc9565b611b96565b9050919050565b6000819050919050565b6121c48361218f565b6121d86121d0826121b1565b84845461213d565b825550505050565b600090565b6121ed6121e0565b6121f88184846121bb565b505050565b5b8181101561221c576122116000826121e5565b6001810190506121fe565b5050565b601f821115612261576122328161210b565b61223b84612120565b8101602085101561224a578190505b61225e61225685612120565b8301826121fd565b50505b505050565b600082821c905092915050565b600061228460001984600802612266565b1980831691505092915050565b600061229d8383612273565b9150826002028217905092915050565b6122b682611942565b67ffffffffffffffff8111156122cf576122ce611712565b5b6122d98254611de8565b6122e4828285612220565b600060209050601f8311600181146123175760008415612305578287015190505b61230f8582612291565b865550612377565b601f1984166123258661210b565b60005b8281101561234d57848901518255600182019150602085019450602081019050612328565b8683101561236a5784890151612366601f891682612273565b8355505b6001600288020188555050505b505050505050565b600060608201905081810360008301526123998186611988565b905081810360208301526123ad8185611988565b90506123bc6040830184611c28565b949350505050565b60006123d08284611eb3565b915081905092915050565b600060ff82169050919050565b6123f1816123db565b82525050565b600060808201905061240c6000830187611918565b61241960208301866123e8565b6124266040830185611918565b6124336060830184611918565b9594505050505056fea2646970667358221220f8d43af30be716f00ed908d83cbc294573112ecc2d5fed28f23b2e926eba6c8e64736f6c63430008140033",
  "linkReferences": {},
  "deployedLinkReferences": {}
}