{
  "_format": "hh-sol-artifact-1",
  "contractName": "NativePaymentProxy",
  "sourceName": "contracts/NativePaymentProxy.sol",
  "abi": [
    {
      "anonymous": false,
      "inputs": [
        {
          "indexed": true,
          "internalType": "address",
          "name": "from",
          "type": "address"
        },
        {
          "indexed": true,
          "internalType": "address",
          "name": "to",
          "type": "address"
        },
        {
          "indexed": false,
          "internalType": "uint256",
          "name": "value",
          "type": "uint256"
        },
        {
          "indexed": true,
          "internalType": "address",
          "name": "referenceId",
          "type": "address"
        }
      ],
      "name": "TransferWithReferenceExecuted",
      "type": "event"
    },
    {
      "inputs": [
        {
          "internalType": "address",
          "name": "to",
          "type": "address"
        },
        {
          "internalType": "uint256",
          "name": "value",
          "type": "uint256"
        },
        {
          "internalType": "address",
          "name": "referenceId",
          "type": "address"
        }
      ],
      "name": "transferWithReference",
      "outputs": [],
      "stateMutability": "payable",
      "type": "function"
    },
    {
      "stateMutability": "payable",
      "type": "receive"
    }
  ],
  "bytecode": "0x608060405234801561001057600080fd5b5061042c806100206000396000f3fe6080604052600436106100225760003560e01c8063060a6aa51461006757610062565b36610062576040517f08c379a00000000000000000000000000000000000000000000000000000000081526004016100599061020e565b60405180910390fd5b600080fd5b610081600480360381019061007c91906102c7565b610083565b005b60008373ffffffffffffffffffffffffffffffffffffffff16346040516100a99061034b565b60006040518083038185875af1925050503d80600081146100e6576040519150601f19603f3d011682016040523d82523d6000602084013e6100eb565b606091505b505090508061012f576040517f08c379a0000000000000000000000000000000000000000000000000000000008152600401610126906103ac565b60405180910390fd5b8173ffffffffffffffffffffffffffffffffffffffff168473ffffffffffffffffffffffffffffffffffffffff163373ffffffffffffffffffffffffffffffffffffffff167f2c3fb865beac965bcaeb303719cc0bbd22667e68b297f7261dc1dc6edb202d88866040516101a391906103db565b60405180910390a450505050565b600082825260208201905092915050565b7f54686520636f6e7472616374206973206e6f742070617961626c650000000000600082015250565b60006101f8601b836101b1565b9150610203826101c2565b602082019050919050565b60006020820190508181036000830152610227816101eb565b9050919050565b600080fd5b600073ffffffffffffffffffffffffffffffffffffffff82169050919050565b600061025e82610233565b9050919050565b61026e81610253565b811461027957600080fd5b50565b60008135905061028b81610265565b92915050565b6000819050919050565b6102a481610291565b81146102af57600080fd5b50565b6000813590506102c18161029b565b92915050565b6000806000606084860312156102e0576102df61022e565b5b60006102ee8682870161027c565b93505060206102ff868287016102b2565b92505060406103108682870161027c565b9150509250925092565b600081905092915050565b50565b600061033560008361031a565b915061034082610325565b600082019050919050565b600061035682610328565b9150819050919050565b7f5472616e7366657220686173206661696c656400000000000000000000000000600082015250565b60006103966013836101b1565b91506103a182610360565b602082019050919050565b600060208201905081810360008301526103c581610389565b9050919050565b6103d581610291565b82525050565b60006020820190506103f060008301846103cc565b9291505056fea26469706673582212200b08357c792fc623559361a26e52ad926cfb1faaab9213cd73638298b50297ce64736f6c63430008140033",
  "linkReferences": {},
  "deployedLinkReferences": {}
}